:020000040800F2
:10000000500F0020D9090008310A0008310A000801
:10001000310A0008310A0008310A00080000000017
:10002000000000000000000000000000310A00088D
:10003000310A000800000000310A0008D10A000857
:10004000310A0008310A0008310A0008310A0008A4
:10005000310A0008310A0008310A0008310A000894
:10006000310A0008310A0008310A0008310A000884
:10007000310A0008310A0008310A0008310A000874
:10008000310A0008310A0008310A0008310A000864
:10009000310A0008310A0008310A0008310A000854
:1000A000310A0008310A0008310A0008310A000844
:1000B000310A0008310A0008310A0008310A000834
:1000C000310A0008310A0008310A0008310A000824
:1000D000310A0008310A0008310A0008310A000814
:1000E000310A0008310A0008310A0008310A000804
:1000F000310A0008310A0008310A0008310A0008F4
:10010000310A0008310A0008310A0008310A0008E3
:10011000310A0008310A0008290E0008310A0008D7
:10012000310A0008310A0008310A0008310A0008C3
:10013000310A0008310A0008310A0008310A0008B3
:10014000310A0008310A0008310A0008190E0008B7
:10015000310A0008310A0008310A0008310A000893
:10016000310A0008310A0008310A0008310A000883
:10017000310A0008310A0008310A0008310A000873
:10018000310A0008310A000880B489B000AFF86075
:10019000B96011461A460B46FB711346BB8000231B
:1001A000FB76FB68DB78002B22D100237B610023E8
:1001B000FB61BB880333002B00DA03339B107B61A8
:1001C000FB79FA6832339B0013449B683B61002340
:1001D000FB6109E0BB681A683B691A60FB6901337F
:1001E000FB61BB680433BB60FA697B699A42F1D357
:1001F000FB7E18462437BD465DF8047B704700BF80
:1002000080B489B000AFF860B9601346FB8000236A
:10021000FB61FB880333002B00DA03339B10BB61C7
:10022000FB68D3F8D0307B610023FB6109E07B6978
:100230001A68BB681A60FB690133FB61BB68043351
:10024000BB60FA69BB699A42F1D3BB681846243790
:10025000BD465DF8047B704780B483B000AF786022
:100260007B68DB685B6903F0010318460C37BD4609
:100270005DF8047B704700BF80B582B000AF786046
:100280007868FFF7E9FF0346012B0CBF0123002329
:10029000DBB218460837BD4680BD00BF80B485B0CC
:1002A00000AF78600023FB607B68DB685B69FB6004
:1002B0007B68DB689B69FA681340FB60FB68184643
:1002C0001437BD465DF8047B704700BF80B485B02D
:1002D00000AF78600B46FB707B685B691B68FB6056
:1002E000FB7803F00303DAB23B7B62F301033B7359
:1002F0007B685B69FA681A601437BD465DF8047B59
:10030000704700BF80B485B000AF78607B68D3F8D9
:10031000CC301B68FB603B7B6FF382033B733B7B02
:100320006FF341033B733B7B6FF3C3033B733B7B37
:100330006FF345133B73FB6818461437BD465DF8F1
:10034000047B704780B483B000AF78607B685B69E2
:100350005B6918460C37BD465DF8047B704700BFEB
:1003600080B584B000AF78607868FFF7CBFF0346B4
:10037000FB607B7B43F001037B737B68D3F8CC305D
:10038000FA681A600A2000F037FD7B7B6FF30003E8
:100390007B737B68D3F8CC30FA681A60142000F0C5
:1003A0002BFD012318461037BD4680BD80B48BB0AD
:1003B00000AF78600B46FB70002387F827300023DE
:1003C000BB6100233B61FB787A6822339B001344B6
:1003D0009B681B68FB60FB7B43F08003FB73FB7B2C
:1003E00043F04003FB73BB7B03F00C03DBB2002B39
:1003F00005D0BB7B03F00C03DBB2082B0CD17B6870
:10040000DB68DB6ABB61BB7E002B04D1FB7B6FF337
:10041000C713FB730BE00AE07B685B691B693B61F8
:10042000BB7C002B03D1FB7B6FF3C713FB73FB7803
:100430007A6822339B0013449B68FA681A6097F825
:10044000273018462C37BD465DF8047B704700BF47
:1004500080B487B000AF78600B46FB700023FB755B
:100460000023FB60FB7B43F08003FB73FB890122CD
:1004700062F3CC03FB81FB787A6822339B00134440
:100480009B68FA681A61FB787A6822339B001344F0
:100490009B681B683B61FB7C43F08003FB74FB7C27
:1004A0006FF38613FB74FB787A6822339B00134446
:1004B0009B683A691A60FB7D18461C37BD465DF89B
:1004C000047B704780B485B000AF78600F4B1A682A
:1004D0007B6802FB03F3FB600D4B1B680D4A9342E4
:1004E00004D00B4B1B680C4A934204D1074B1B688A
:1004F000FA68D31AFB6000BFFB685A1EFA60002B33
:10050000FAD11437BD465DF8047B704754000020D3
:10051000100000200095BA0A00E1F50580B582B010
:1005200000AF03460A46FB711346BB7100F040FB67
:1005300000F05CF84AF6C870FFF7C4FF2A4ABB799E
:10054000D370294AFB791371274B00225A71264B2D
:1005500000229A71244B00225A70BB79012B06D9D4
:10056000214B5B7843F00803DAB21F4B5A7003202B
:1005700000F0DAF841F29410FFF7A4FF032000F036
:10058000D3F841F29410FFF79DFF032000F0CCF860
:1005900041F29410FFF796FF022000F0C5F86420A6
:1005A000FFF790FF104B5B7843F02003DBB2184657
:1005B00000F086F80C4B04221A7000F093F900F05A
:1005C00075F8094B02229A70074B9B7843F004039D
:1005D000DBB2184600F074F841F29410FFF772FF96
:1005E0000837BD4680BD00BF4C00002080B582B0FA
:1005F00002AF00230093002301932B480421012222
:10060000002300F089FC0023009300230193264877
:100610004FF400610122002300F07EFC00230093D0
:100620000023019320484FF480510122002300F061
:1006300073FC00230093002301931B484FF40051E7
:100640000122002300F068FC0023009300230193A3
:1006500015484FF480410122002300F05DFC002387
:1006600000930023019310484FF40041012200231E
:1006700000F052FC0C4B04225A830B4B4FF40062E7
:100680005A83094B4FF480525A83074B4FF4005260
:100690005A83054B4FF480425A83034B4FF4004278
:1006A0005A83BD4680BD00BF0004024080B500AF44
:1006B000012000F005F840F6B830FFF703FF80BDD9
:1006C00080B582B000AF0346FB71094B04225A8308
:1006D000FB791B09DBB2184600F026F8FB7903F022
:1006E0000F03DBB2184600F01FF80837BD4680BD87
:1006F0000004024080B582B000AF0346FB71094B95
:1007000004221A83FB791B09DBB2184600F00CF8AF
:10071000FB7903F00F03DBB2184600F005F8083749
:10072000BD4680BD0004024080B582B000AF0346E4
:10073000FB71FB7903F00803002B04D0214B4FF42D
:1007400000421A8303E01F4B4FF400425A83FB79A7
:1007500003F00403002B04D01A4B4FF480421A8399
:1007600003E0184B4FF480425A83FB7903F00203F5
:10077000002B04D0134B4FF400521A8303E0114BAB
:100780004FF400525A83FB7903F00103002B04D08D
:100790000C4B4FF480521A8303E00A4B4FF4805203
:1007A0005A83084B4FF400621A831420FFF78AFE25
:1007B000044B4FF400625A831420FFF783FE08377E
:1007C000BD4680BD0004024080B584B000AF034642
:1007D0000A46FB711346BB71124A07F10C031068FD
:1007E0001860114BDB78BA799A4201D30023BB71B0
:1007F0000D4AFB7953710C4ABB799371BB7907F1B0
:100800001002134413F8042CFB791344DBB2DBB25F
:1008100063F07F03DBB2DBB21846FFF751FF1037FE
:10082000BD4680BDE42300084C00002080B582B0A6
:1008300000AF03463A60FB710B46BB71FA79BB7996
:1008400010461946FFF7C0FF42E0254B5A79244B6A
:100850001B799A4210D3224B00225A71204B9B796C
:100860000133DAB21E4B9A711D4B5A791C4B9B799E
:1008700010461946FFF7A8FF3B681B780A2B0ED1DC
:10088000174B9B790133DAB2154B9A71144B5A7995
:10089000134B9B7910461946FFF796FF15E03B680E
:1008A0001B780D2B06D10E4B9B7900201946FFF7C4
:1008B0008BFF0AE03B681B781846FFF71BFF084BCD
:1008C0005B790133DAB2064B5A713B6801333B6006
:1008D0003B681B78002BB8D10837BD4680BD00BFF0
:1008E0004C00002080B500AF074B1B7843F0040399
:1008F000DAB2054B1A70044B1B7843F00803DBB2E5
:100900001846FFF7DDFE80BD4C00002080B500AF2B
:10091000074B1B7843F00103DAB2054B1A70044B06
:100920001B7843F00803DBB21846FFF7C9FE80BD11
:100930004C00002080B500AF074B1B7843F002034A
:10094000DAB2054B1A70044B1B7843F00803DBB294
:100950001846FFF7B5FE80BD4C00002080B584B07E
:1009600000AF03463960FB71FB7903F00703FB71AD
:10097000FB79DB00DBB243F04003DBB2DBB21846AD
:10098000FFF79EFE0023FB7309E0FB7B3A681344EC
:100990001B781846FFF7AEFEFB7B0133FB73FB7B36
:1009A000072BF2D91037BD4680BD00BF80B582B09D
:1009B00000AF0346FB710B46BB7113467B71FA799E
:1009C000BB7910461946FFF7FFFE7B791846FFF703
:1009D00091FE0837BD4680BD80B582B000AF0F4B99
:1009E0007B600F4B3B6007E03B681A1D3A607A68FA
:1009F000111D796012681A603B680A4A9342F3D36A
:100A000009480A494FF000028842B8BF40F8042B59
:100A1000FADB00F0F3F80837BD4680BD7C240008FF
:100A200000000020240000202400002050070020A7
:100A300080B400AFFEE700BF80B483B000AF0346D0
:100A40003960FB7197F90730002B0BDA0D49FB7900
:100A500003F00F03043B3A68D2B21201D2B20B4446
:100A60001A7609E0084997F907303A68D2B21201BC
:100A7000D2B20B4483F800230C37BD465DF8047BEB
:100A8000704700BF00ED00E000E100E080B582B0FB
:100A900000AF78607B68B3F1807F01D3012311E060
:100AA0000A4A7B6823F07F43013B53604FF0FF30DD
:100AB0000F21FFF7C1FF054B00229A60034B07226D
:100AC0001A60002318460837BD4680BD10E000E0DC
:100AD00080B582B000AF334B1B680133314A1360DD
:100AE000314B1B68002B04D02F4B1B68013B2E4A57
:100AF0001360AFF300800023FB714BE0FB792B4ABE
:100B00009B0013445B68002B41D0FB79274A9B0074
:100B100013445B681B7B002B39D0FB79234A9B0075
:100B200013445B689B68002B31D0FB791F4A9B0004
:100B300013445B689A68013A9A60FB791B4A9B00F0
:100B400013445B689B68002B21D1FB79174A9B00FB
:100B500013445B681B699847FB79144A9B00134454
:100B60005A68FB7911499B000B445B681B689360D2
:100B7000FB790E4A9B0013445B685B68002B06D12F
:100B8000FB790A4A9B0013445B6800221A73FB79C5
:100B90000133FB71054B1B78FA799A42AED30837C3
:100BA000BD4680BD280000202C000020340000201D
:100BB00080B500AF0C4B1B680C4AA2FB03239B09BA
:100BC0001846FFF763FF0346002B00D0FEE7064BF5
:100BD0001B689B09064AA2FB03239B0A054A136074
:100BE000054B01221A7080BD10000020D34D621009
:100BF00017916502540000203000002080B500AF3E
:100C000000F040F90023184680BD00BF80B483B0D7
:100C100000AF78607B680122C3F8102300231846D8
:100C20000C37BD465DF8047B704700BF80B483B0CD
:100C300000AF78607B680022C3F8102300231846B9
:100C40000C37BD465DF8047B704700BF80B483B0AD
:100C500000AF7860002318460C37BD465DF8047B72
:100C6000704700BF80B500AF114A114B1B6843F0BD
:100C7000010313600E4B00229A600D4A0C4B1B6857
:100C800023F0847323F480331360094B094A5A60BC
:100C9000074A074B1B6823F480231360044B002290
:100CA000DA6000F00BF8044B4FF000629A6080BDF0
:100CB000003802401030002400ED00E080B483B022
:100CC00000AF00237B6000233B60354A344B1B6838
:100CD00043F480331360324B1B6803F400333B60F2
:100CE0007B6801337B603B68002B03D17B68B3F5E5
:100CF000A06FF0D12A4B1B6803F40033002B02D005
:100D000001233B6001E000233B603B68012B42D1A3
:100D1000234A234B1B6C43F080531364214A214B1D
:100D20001B6843F4804313601D4A1D4B9B6893600E
:100D30001B4A1B4B9B6843F400439360184A184BB3
:100D40009B6843F4A0539360154B174A5A60144AAA
:100D5000134B1B6843F08073136000BF104B1B687C
:100D600003F00073002BF9D0104B40F205621A60BB
:100D70000B4A0B4B9B6823F003039360084A084B14
:100D80009B6843F00203936000BF054B9B6803F030
:100D90000C03082BF9D10C37BD465DF8047B704776
:100DA000003802400070004019544007003C0240E7
:100DB00080B485B000AF78600023BB607A681346CA
:100DC0001B019B1ADB001A460A4BA3FB0213D21A23
:100DD000520813449B08FB60BB680133BB60FA6890
:100DE000934200D900E0F7E71437BD465DF8047B75
:100DF000704700BF2549922480B582B000AF78606B
:100E00007B684FF47A7202FB03F31846FFF7D0FFBA
:100E10000837BD4680BD00BF80B500AF014800F077
:100E200033F980BD5800002080B400AF084A084B59
:100E30001B8A9BB223F001039BB21382054A054B28
:100E40005B6983F440735361BD465DF8047B704772
:100E5000001000400008024080B485B000AF786008
:100E6000074B1B68FB6000BF054B1A68FB68D21A72
:100E70007B689A42F8D31437BD465DF8047B70470F
:100E80002800002080B582B000AF1E4A3B461068A3
:100E9000516803C3FFF7E6FE14200221FFF73EFB73
:100EA0003B4600201946FFF759FD00200021164A55
:100EB000FFF7BCFC02200121144AFFF7B7FC002019
:100EC0000221134AFFF7B2FC41F28830FFF7C4FF5A
:100ED000FFF7ECFBFFF72EFD062002210D4AFFF77E
:100EE000A5FC4FF47A70FFF7B7FFFFF70FFD012065
:100EF00002210022FFF75AFD002318460837BD469D
:100F000080BD00BF40240008E8230008002400083A
:100F1000142400083424000890B585B002AF78602E
:100F2000084611461A4603467B800B467B701346E3
:100F30003B707B88002B00D10DE0786800F020F832
:100F400079887A783C783B7E00933B7F0193786880
:100F5000234600F02BF80C37BD4690BD80B483B01B
:100F600000AF78607B6803F13F4303F57E039B0A83
:100F70009BB218460C37BD465DF8047B704700BF36
:100F800080B582B000AF78607868FFF7E7FF03466E
:100F90001A46012303FA02F1034A034B1B6B0B436E
:100FA00013630837BD4680BD0038024080B485B069
:100FB00000AF7860084611461A4603467B800B4610
:100FC0007B7013463B700023FB7355E07A88FB7BF4
:100FD00042FA03F303F00103002B00D149E07B68E0
:100FE000DB68FA7B5200032101FA02F2D24313407C
:100FF000397EFA7B520001FA02F21A437B68DA600A
:101000007B681A68FB7B5B00032101FA03F3DB4377
:1010100013407978FA7B520001FA02F21A437B6896
:101020001A607B78012B02D07B78022B21D17B6860
:101030005B68FA7B012101FA02F292B2D2431340BB
:101040003978FA7B01FA02F292B21A437B685A604D
:101050007B689A68FB7B5B00032101FA03F3DB43A7
:101060001340397FFA7B520001FA02F21A437B687F
:101070009A60FB7B0133FB73FB7B0F2BA6D91437E4
:10108000BD465DF8047B704780B584B000AF7860E2
:101090000023FB600023BB607868FFF7EDF8034690
:1010A000002B71D07868FFF7F9F80346BB60BB6886
:1010B000002B01D1002368E03B7A03F00803DBB288
:1010C000002B06D0786800F0ABF80246FB681343AB
:1010D000FB603B7A03F01003DBB2002B06D078688C
:1010E00001F08AF80246FB681343FB603B7A03F089
:1010F0002003DBB2002B06D0786800F0C5F802466A
:10110000FB681343FB60FB7A03F00403DBB2002BA4
:1011100006D0786800F07EF90246FB681343FB6056
:10112000FB7A03F00203DBB2002B06D0786800F0F4
:1011300031F80246FB681343FB60FB7A03F00103BE
:10114000DBB2002B06D0786800F02AFA0246FB6872
:101150001343FB60FB7A03F02003DBB2002B06D0C5
:10116000786800F077F80246FB681343FB60BB7AAF
:1011700003F02003DBB2002B06D0786801F00AF9F7
:101180000246FB681343FB60FB6818461037BD46F8
:1011900080BD00BF80B586B000AF786000237B6162
:1011A00000233B617868FFF7CDF80346FB6000231E
:1011B0007B612AE0BB891A467B6942FA03F303F09C
:1011C0000103002B1ED07A687B6922339B001344F5
:1011D0009B681B68BB607B7A23F07F03DBB2002B2C
:1011E00008D07868796900F033FD02463B69134303
:1011F0003B6107E07868796900F084FA02463B6950
:1012000013433B617B6901337B617B681B781A4622
:101210007B699A42CED83B6918461837BD4680BDD7
:1012200080B584B000AF78600023FB60084B1B687A
:101230001B68786898473B7B43F008033B737B68E7
:10124000DB68FA685A61012318461037BD4680BD35
:101250000C00002080B584B000AF78600023FB60F4
:10126000084B1B689B6878689847FB7B43F020031A
:10127000FB737B68DB68FA685A61012318461037F4
:10128000BD4680BD0C00002090B589B000AF7860ED
:101290007B68DB68DB6AFB603B7CC3F3C303DBB2C8
:1012A0007A685B01134403F56E735B6803339B0834
:1012B000FB8398E0BB899B00BB83BA8B3B7CC3F369
:1012C000C303DBB279685B010B4403F56E735B68A3
:1012D0009A4219D93B7CC3F3C303DBB27A685B0142
:1012E000134403F56E735B68BB830023BB613B7ED5
:1012F00043F020033B767B68DB687A68D2689169AB
:10130000BA69D2430A409A613B7CC3F3C303DBB2A0
:101310007A685B01134403F56E735B6803339B08C3
:10132000FB833B7CC3F3C303DBB27A6815335B01F9
:10133000134403F588739A683B7CC3F3C303DBB2A1
:101340001C46BB8B786811462246FEF71DFF3B7C8E
:10135000C3F3C303DBB218463B7CC3F3C303DBB266
:101360007A6815335B01134403F588739A68BB8B65
:101370001A44796800F115035B010B4403F5887387
:101380009A603B7CC3F3C303DBB218463B7CC3F3D8
:10139000C303DBB27A685B01134403F56E735A68CA
:1013A000BB8BD21A796843010B4403F56E735A6004
:1013B0003B7CC3F3C303DBB218463B7CC3F3C303DC
:1013C000DBB27A685B01134403F56E739A68BB8BDA
:1013D0001A44796843010B4403F56E739A607B6885
:1013E000DB68DB6AFB60BB89FA8B9A420CD23B7CE0
:1013F000C3F3C303DBB27A685B01134403F56E7376
:101400005B68002B7FF456AF012318462437BD4696
:1014100090BD00BF90B587B000AF78607B685B6916
:101420001B69BB603B7BC3F3C303DBB27A685B0120
:10143000134403F56E735B6803339B08FB8298E0EB
:101440003B899B00BB82BA8A3B7BC3F3C303DBB2FD
:1014500079685B010B4403F56E735B689A4219D996
:101460003B7BC3F3C303DBB27A685B01134403F530
:101470006E735B68BB8200233B61FB7C43F004031B
:10148000FB747B68DB687A68D26891693A69D243F9
:101490000A409A613B7BC3F3C303DBB27A685B010A
:1014A000134403F56E735B6803339B08FB823B7B3D
:1014B000C3F3C303DBB27A6815335B01134403F54E
:1014C00088739A683B7BC3F3C303DBB21C46BB8AB9
:1014D000786811462246FEF757FE3B7BC3F3C303F1
:1014E000DBB218463B7BC3F3C303DBB27A68153328
:1014F0005B01134403F588739A68BB8A1A447968C0
:1015000000F115035B010B4403F588739A603B7B84
:10151000C3F3C303DBB218463B7BC3F3C303DBB2A5
:101520007A685B01134403F56E735A68BB8AD21A5A
:10153000796843010B4403F56E735A603B7BC3F338
:10154000C303DBB218463B7BC3F3C303DBB27A6849
:101550005B01134403F56E739A68BB8A1A44796879
:1015600043010B4403F56E739A607B685B691B69EA
:10157000BB603B89FA8A9A420CD23B7BC3F3C3031C
:10158000DBB27A685B01134403F56E735B68002B72
:101590007FF456AF012318461C37BD4690BD00BFEF
:1015A00080B588B000AF78600023FB610023BB6189
:1015B0000023FB6000237B6100233B617B68D3F841
:1015C000CC301B687B617B68D3F8CC301B683B61F7
:1015D0003B7C6FF382033B743B7C6FF341033B74B2
:1015E0003B7C6FF3C3033B743B7C6FF345133B744D
:1015F0003B7D03F00203DBB2002B0CD03B7C43F0BD
:1016000002033B743E4B1B685B6878689847BB6974
:1016100043F00103BB613B7D03F00803DBB2002B09
:101620004FD03B7C43F008033B743B7D03F0040345
:10163000DBB2002B45D0324B1B685B68786898475B
:10164000BB7D03F00603DBB2042B05D0BB7D03F0AA
:101650000603DBB2022B32D17B685B691B68FB603F
:10166000BB7D03F00603DBB2042B15D17B685B69FD
:1016700041F270725A603B7B03F00303DBB2022B32
:101680001CD07B681B7A022B03D178680221FEF7FD
:101690001DFE0123FB6114E07B685B694BF6803221
:1016A0005A603B7B03F00303DBB2012B06D0786862
:1016B0000121FEF70BFE0123FB6102E001E00123A3
:1016C000FB613B7D03F02003DBB2002B07D03B7CAA
:1016D00043F020033B74BB6943F00103BB61FB692A
:1016E000002B02D07868FEF73BFE7B68D3F8CC3045
:1016F0003A691A60BB6918462037BD4680BD00BFF5
:101700000C00002080B59AB000AF786039607A682C
:101710003B6822339B0013449B687B667B6E9B680F
:101720003B667B6EDB68FB653A6EFB6D13403B6688
:101730007A683B6822339B0013449B681B68BB6537
:1017400097F8603003F00403DBB2002B21D00023B4
:101750007B6597F8543043F0040387F854307A6D72
:101760007B6E9A607A683B6822339B0013449B68C7
:10177000DB683B6597F8503043F0020387F8503040
:101780007A683B6822339B0013449B683A6DDA60A9
:1017900058E297F8603003F02003DBB2002B0BD047
:1017A0000023FB6497F84C3043F0200387F84C305B
:1017B000FA6C7B6E9A6045E297F8613003F00203A1
:1017C000DBB2002B27D07A683B6822339B0013449E
:1017D0009B68DB68BB6497F8483043F0020387F8E6
:1017E00048307A683B6822339B0013449B68BA6C8C
:1017F000DA603B68DBB278681946FEF7D7FD002354
:101800007B6497F8453043F0020387F845307A6CE3
:101810007B6E9A6016E297F8603003F00103DBB24A
:10182000002B35D07A683B68C4339B0013440022F8
:101830005A607A683B6822339B0013449B68DB68DC
:101840003B6497F8403043F0020387F840307A68F1
:101850003B6822339B0013449B683A6CDA603B6818
:10186000DBB278681946FEF7A1FD0023FB6397F809
:101870003C3043F0010387F83C30FA6B7B6E9A6092
:101880007A683B68134403F5627301221A71D9E147
:1018900097F8603003F00803DBB2002B2ED0002352
:1018A000BB6397F8383043F0080387F83830BA6BD9
:1018B0007B6E9A607A683B6822339B0013449B6876
:1018C000DB687B6397F8343043F0020387F83430E9
:1018D0007A683B6822339B0013449B687A6BDA601A
:1018E0003B68DBB278681946FEF760FD7A683B68B2
:1018F000134403F5627305221A71A3E197F860306F
:1019000003F01003DBB2002B35D07A683B68C43398
:101910009B00134400225A607A683B6822339B0084
:1019200013449B68DB683B6397F8303043F0020355
:1019300087F830307A683B6822339B0013449B68F9
:101940003A6BDA603B68DBB278681946FEF72EFD29
:101950000023FB6297F82C3043F0100387F82C30FB
:10196000FA6A7B6E9A607A683B68134403F5627387
:1019700003221A7166E197F8603023F07F03DBB22F
:10198000002B3BD07A683B6822339B0013449B6852
:10199000DB68BB6297F8283043F0020387F82830F1
:1019A0007A683B6822339B0013449B68BA6ADA600A
:1019B0003B68DBB278681946FEF7F8FC7A683B684A
:1019C000C4339B0013445B685A1C79683B68C4337A
:1019D0009B000B445A607A683B68134403F56273BA
:1019E00006221A7100237B6297F8243043F08003AB
:1019F00087F824307A6A7B6E9A6023E197F860302A
:101A000003F04003DBB2002B33D07A683B68C43369
:101A10009B00134400225A607A683B6822339B0083
:101A200013449B68DB683B6297F8203043F0020365
:101A300087F820307A683B6822339B0013449B6808
:101A40003A6ADA603B68DBB278681946FEF7AEFCAA
:101A50000023FB613B7F43F040033B77FA697B6ED9
:101A60009A607A683B68134403F5627304221A7122
:101A7000E8E097F8613003F00403DBB2002B33D0C9
:101A80007A683B6822339B0013449B68DB68BB6128
:101A90003B7E43F002033B767A683B6822339B002F
:101AA00013449B68BA69DA603B68DBB27868194610
:101AB000FEF77CFC00237B613B7D43F010033B750C
:101AC0007A697B6E9A607A683B68134403F56273A7
:101AD00008221A7100233B617B7C43F004037B7472
:101AE0003A697B6E9A60ADE097F8603003F00203CC
:101AF000DBB2002B00F0A6807A683B6822339B00A3
:101B000013449B68DB68FB603B7B6FF341033B73D3
:101B10007A683B6822339B0013449B68FA68DA605A
:101B20007A683B68134403F562731B79DBB2012BBF
:101B30001ED17A683B68134403F566730122DA709C
:101B400097F85A3003F00C03DBB2082B71D17A6896
:101B50003B681E335B0113445B7983F00103D9B208
:101B60007A683B681E335B0113440A465A7160E091
:101B70007A683B68134403F562731B79DBB2032B6D
:101B800007D17A683B68134403F566730222DA7062
:101B90004FE07A683B68134403F562731B79DBB24C
:101BA000042B16D17A683B685B01134403F56A7312
:101BB0001B7A012B05D13B68DBB278681946FEF72A
:101BC00047FC7A683B68134403F566730222DA70B7
:101BD0002FE07A683B68134403F562731B79DBB22C
:101BE000052B07D17A683B68134403F5667304221A
:101BF000DA701EE07A683B68134403F562731B7960
:101C0000DBB2062B15D17A683B68C4339B001344C2
:101C10005B68032B0DD17A683B68134403F5667348
:101C20000322DA707A683B68C4339B0013440022B5
:101C30005A600023BB603B7A43F002033B72BA68F0
:101C40007B6E9A60012318466837BD4680BD00BF91
:101C500080B59CB000AF786039607A683B68223309
:101C60009B0013449B68FB66FB6E9B68BB66FB6E28
:101C7000DB687B66BA6E7B6E1340BB667A683B6836
:101C800022339B0013449B681B683B6600237B66E2
:101C900097F8683003F00403DBB2002B21D0002357
:101CA000BB6597F8583043F0040387F85830BA6D95
:101CB000FB6E9A607A683B6822339B0013449B68F2
:101CC000DB687B6597F8543043F0020387F85430A3
:101CD0007A683B6822339B0013449B687A6DDA6014
:101CE00099E097F8683003F02003DBB2002B0BD0AB
:101CF00000233B6597F8503043F0200387F85030BD
:101D00003A6DFB6E9A6086E097F8683003F008033E
:101D1000DBB2002B3FD07A683B6822339B00134430
:101D20009B68DB68FB6497F84C3043F0020387F84C
:101D30004C307A683B6822339B0013449B68FA6CF2
:101D4000DA607A683B68134403F5627305221A71FE
:101D50000023BB6497F8483043F0100387F84830FD
:101D6000BA6CFB6E9A6000237B6497F8443043F0B2
:101D7000080387F844307A6CFB6E9A6097F86830F5
:101D80006FF3041387F868303B68DBB27868194654
:101D9000FEF70CFB3FE097F8693003F00403DBB279
:101DA000002B38D07A683B6822339B0013449B6831
:101DB000DB683B6497F8403043F0020387F840301B
:101DC0007A683B6822339B0013449B683A6CDA6064
:101DD0003B68DBB278681946FEF7E8FA0023FB633C
:101DE00097F83C3043F0100387F83C30FA6BFB6EF9
:101DF0009A607A683B68134403F5627308221A718B
:101E00000023BB6397F8393043F0040387F8393077
:101E1000BA6BFB6E9A6097F8693003F00203DBB28D
:101E2000002B27D07A683B6822339B0013449B68C1
:101E3000DB687B6397F8343043F0020387F8343073
:101E40007A683B6822339B0013449B687A6BDA60A4
:101E50003B68DBB278681946FEF7A8FA00233B63BB
:101E600097F8313043F0020387F831303A6BFB6E5C
:101E70009A60BBE197F8683003F00103DBB2002BF6
:101E800000F099807B68DB78012B17D17A683B687A
:101E900022339B0013449B681B69FB657A683B688F
:101EA0005B01134403F56E735B68FA6DC2F31202B3
:101EB000991A7B683A68D43243F822107A683B68F2
:101EC000134403F5627301221A717A683B68C433C4
:101ED0009B00134400225A600023FB6297F82C30C9
:101EE00043F0010387F82C30FA6AFB6E9A6097F88A
:101EF000623003F00C03DBB2002B06D097F862309F
:101F000003F00C03DBB2082B37D17A683B6822332D
:101F10009B0013449B68DB68BB6297F8283043F052
:101F2000020387F828307A683B6822339B00134409
:101F30009B68BA6ADA603B68DBB278681946FEF7DC
:101F400035FA00237B6297F8243043F0100387F8BA
:101F500024307A6AFB6E9A607A683B681E335B01B4
:101F600013441B7983F00103D9B27A683B681E33AE
:101F70005B0113440A461A7138E197F8623003F0A6
:101F80000C03DBB20C2B40F0318197F8633043F047
:101F9000200387F863307A683B6822339B00134440
:101FA0009B683A6E1A607A683B68134403F566735F
:101FB0000122DA701AE197F8683003F00203DBB20D
:101FC000002B79D07A683B6822339B0013449B68CE
:101FD000DB683B6297F820306FF3410387F82030CD
:101FE0007A683B6822339B0013449B683A6ADA6044
:101FF0007A683B68134403F562731B79DBB2012BEB
:1020000007D17A683B68134403F566730122DA70DE
:1020100048E07A683B68134403F562731B79DBB2CE
:10202000052B07D17A683B68134403F566730422D5
:10203000DA7037E07A683B68134403F562731B7902
:10204000DBB2062B08D07A683B68134403F5627351
:102050001B79DBB2082B0ED17A683B68C4339B0036
:10206000134400225A607A683B68134403F5667390
:102070000322DA7016E097F8623003F00C03DBB24B
:102080000C2B0FD17A683B681E335B0113441B791C
:1020900083F00103D9B27A683B681E335B011344B5
:1020A0000A461A710023FB613B7F43F002033B7732
:1020B000FA69FB6E9A6099E097F8683023F07F0325
:1020C000DBB2002B37D07A683B6822339B00134485
:1020D0009B68DB68BB613B7E43F002033B767A681A
:1020E0003B6822339B0013449B68BA69DA607A68C4
:1020F0003B68C4339B0013445B685A1C79683B6897
:10210000C4339B000B445A607A683B68134403F560
:10211000627306221A713B68DBB278681946FEF7D3
:1021200045F900237B613B7D43F080033B757A6971
:10213000FB6E9A605AE097F8683003F01003DBB248
:10214000002B53D097F8623003F00C03DBB20C2B5A
:102150001AD17A683B6822339B0013449B68DB6882
:102160003B613B7C43F002033B747A683B6822335B
:102170009B0013449B683A69DA603B68DBB278687D
:102180001946FEF713F921E097F8623003F00C03CB
:10219000DBB2002B06D097F8623003F00C03DBB201
:1021A000082B13D197F8633043F0800387F863302E
:1021B00097F863306FF3861387F863307A683B686B
:1021C00022339B0013449B683A6E1A607A683B681E
:1021D000134403F5627303221A710023FB603B7BF7
:1021E00043F010033B73FA68FB6E9A6001231846B4
:1021F0007037BD4680BD00BF80B588B000AF786045
:102200000023FB7200237B613B7D43F010033B7591
:102210007B68DB687A68D26891697A69D2430A4040
:102220009A617B68DB681B6ABB613B7EC3F3030377
:10223000DBB2FB72FB7ADBB27A6822339B00134479
:102240009B681B68FB60BB7EC3F34303DBB2022BBE
:1022500000D08DE03B8BC3F30A139BB2002B40F3FD
:102260008680FB7ADBB27A6815335B01134403F591
:1022700088739B68002B7AD0FB7ADBB27A681533BF
:102280005B01134403F588739A683B8BC3F30A130D
:102290009BB2786811461A46FDF7B2FF3B7EC3F346
:1022A0000303DBB218463B7EC3F30303DBB27A6859
:1022B00015335B01134403F588739B683A8BC2F3B3
:1022C0000A1292B21A44796800F115035B010B44BB
:1022D00003F588739A603B7EC3F30303DBB21846B1
:1022E0003B7EC3F30303DBB27A685B01134403F55F
:1022F0006E739B683A8BC2F30A1292B21A447968E1
:1023000043010B4403F56E739A60FB7ADBB27A6883
:102310005B01134403F56E739B68FB61FB7ADBB2D0
:102320001A467B68D432F96943F82210FB7ADBB293
:102330007A6822339B0013449B681B693B617B8A4C
:10234000C3F3C9039BB2002B11DDFB7B43F0800379
:10235000FB73FB7B6FF38613FB73FB7ADBB27A684C
:1023600022339B0013449B68FA681A60FFE700BFA2
:102370003B7D43F010033B757B68DB687A68D2686D
:1023800091697A690A439A61012318462037BD464C
:1023900080BD00BF80B485B000AF78607B68D3F8A3
:1023A00090301B68BB60FB7A43F08003FB72FB7AC2
:1023B00043F04003FB727B68D3F89030BA681A6030
:1023C0000023FB60BB7B43F02003BB737B68DB68AF
:1023D000FA685A61012318461437BD465DF8047B3C
:1023E000704700BF0040145453544D333246342FCD
:1023F000323920446973636F76657279000000009A
:10240000323078342048443434373830204C434418
:102410000000000073746D333266342D0A0D2020E5
:102420002020202020646973636F766572792E63A3
:102430006F6D0000434C45415245442100000000AF
:102440001F1111111111111F2D2D2D2D2D2D2D2D80
:102450002D2D2D2D2D2D2D2D2D2D2D2D2D2D2D2DAC
:102460002D2D2D2D0A5662617420766F6C74616774
:0C247000653A202564206D560A0000002B
:10247C004D0C00080D0C00082D0C0008000000206D
:10248C00007A030A000000000000000001020304AF
:04249C00060708091E
:0400000508000000EF
:00000001FF
